:020000040800F2
:10000000700600206D010008150500080D050008A8
:1000100011050008ED030008890700080000000032
:100020000000000000000000000000006105000862
:100030002904000800000000190500082D0600082A
:100040008701000887010008870100088701000870
:100050008701000887010008870100088701000860
:100060008701000887010008870100088701000850
:100070008701000887010008870100088701000840
:100080008701000887010008870100088701000830
:100090008701000887010008870100088701000820
:1000A0008701000887010008870100088701000810
:1000B0008701000887010008870100088701000800
:1000C00087010008870100088701000887010008F0
:1000D00087010008870100088701000887010008E0
:1000E00087010008870100088701000800F002F876
:1000F00000F02CF80AA090E8000C82448344AAF196
:100100000107DA4501D100F021F8AFF2090EBAE893
:100110000F0013F0010F18BFFB1A43F0010318473B
:10012000BC060000CC0600000023002400250026A9
:10013000103A28BF78C1FBD8520728BF30C148BF4A
:100140000B6070471FB51FBD10B510BD00F031F832
:100150001146FFF7F7FF00F019FB00F04FF803B46A
:10016000FFF7F2FF03BC00F057F800000948804792
:1001700009480047FEE7FEE7FEE7FEE7FEE7FEE789
:10018000FEE7FEE7FEE7FEE704480549054A064BA1
:100190007047000031060008ED00000870000020E4
:1001A0007006002070020020700200207047704727
:1001B0007047754600F02CF8AE4605006946534678
:1001C00020F00700854618B020B5FFF7DDFFBDE839
:1001D00020404FF000064FF000074FF000084FF0AE
:1001E000000BAC46ACE8C009ACE8C009ACE8C009FB
:1001F000ACE8C00921F007018D46704710B50446F0
:10020000AFF300802046BDE81040FFF7A8BF000014
:10021000004870470000002001491820ABBEFEE7EF
:1002200026000200704700008268002942F00103A6
:1002300008BF22F0010383607047000010B586B04C
:1002400042F200444FF401700121C4F2010400F0B5
:100250007BF90120012100F077F94FF003100590A0
:10026000A4F5E05005A900F0F9F84FF480710020E2
:10027000ADF804104FF460210090CDE90210022087
:100280008DF810006946204600F03EF82046002117
:100290000122072300F062F82046012102220723F1
:1002A00000F05CF820460121FFF7BEFF2046012147
:1002B00000F018F8204600F083F800BF204600F058
:1002C0001FF80028FAD1204600F08AF8204600F0F6
:1002D00013F80028FAD12046012100F077F806B083
:1002E00010BD00008268002942F4807308BF22F428
:1002F00080738360704700008068C0F3800070479F
:100300008068C0F3C000704780B542684FF6FF6355
:10031000CFF6F07302EA030C0B680A7943EA0C0388
:1003200043EA0222426082684FF2FD73CFF6F17316
:1003300002EA030CD1E902E24B7942EA0C0242EAFA
:100340000E0242EA43028260C26A097C22F4700211
:100350000139C9B242EA0151C16280BDB0B501EBB9
:10036000410C4FF0100E092988BFACF11E0C88BF5C
:100370004FF00C0E50F80E40072505FA0CF5AC4373
:1003800003FA0CF32343062A40F80E3003D8343026
:100390006FF0040307E00C2A87BF2C306FF0400396
:1003A00030306FF0220302EB820205681A441F23EB
:1003B000934025EA0303914019430160B0BD00005A
:1003C000816841F00801816070470000826800295F
:1003D00042F4A00308BF22F4A0038360704700002A
:1003E000816841F00401816070470000FEE7000071
:1003F00070B506464FF4404014460D4600F08EF8A6
:100400000120012100F094F80820C4F20200866067
:10041000C5604460016842F2A05211430160016866
:1004200041F00101016070BD70470000B0B50028C7
:1004300008BFB0BD42F600450446C4F2010500BF46
:100440002846002100F048F9284600F043F9B0F5AD
:100450007A7FF9D3013CF3D1B0BD00002DE9F04122
:10046000CA7802F00F0CD30644BF8B784CEA030C19
:1004700009880B0621D0056800234FF001084FF0D2
:100480000F0E002608E000BF282A08BF476101368A
:10049000082E03F104030FD008FA06F70F42F6D036
:1004A0000EFA03F425EA04040CFA03F5482A45EA97
:1004B0000405E9D10761EAE70560B1F5807F38BF3F
:1004C000BDE8F081446800234FF4807E4FF00F08B0
:1004D000002607E0282A08BF47610136082E03F1ED
:1004E000040310D00EFA06F707EA0105BD42F4D165
:1004F00008FA03F5AC430CFA03F5482A44EA05046C
:10050000E8D10761E9E74460BDE8F081FEE700005B
:10051000FEE70000704700007047000041F2040150
:10052000C4F202010A6822F4404210430860704796
:10053000002941F21401C4F202010A680CBF22EA48
:100540000000104308607047002941F21801C4F20E
:1005500002010A680CBF22EA0000104308607047DD
:100560007047000080B500F001F880BD82B041F214
:1005700004000021C4F202000191009150F8041C13
:1005800041F4803140F8041C50F8041C01F400319F
:100590000091019901310191009919B90199B1F5C1
:1005A000A06FF1D150F8041C890354BF0021012130
:1005B00000910099012936D142F20001C4F20201F2
:1005C0000A6842F010020A600A6822F003020A6018
:1005D0000A6842F002020A60016801600168016075
:1005E000016841F480610160016821F47C110160BF
:1005F000016841F4E811016050F8041C41F0807179
:1006000040F8041C50F8041C8901FBD5016821F056
:1006100003010160016841F002010160016801F01D
:100620000C010829FAD102B07047000070470000A1
:1006300080B541F20000C4F202000168002241F0DE
:10064000010101604168CFF6FF021140416001687D
:100650004FF6FF72CFF6F66211400160016821F497
:1006600080210160416821F4FE0141604FF41F01C7
:100670008160FFF777FF4EF60850CEF200004FF092
:100680000061016080BD000010B584B04FF40060CF
:100690000121FFF759FF4FF6FF7042F60044ADF815
:1006A00008004820C4F20104019001A9204600F08E
:1006B00015F82046012100F003F804B010BD000039
:1006C0000288002942F0010308BF22F001030380E1
:1006D00070470000808C70478184704740F6FF337C
:1006E000B0F800C0C4F2000398420FDCB0F1804FB4
:1006F0001ED040F20043C4F20003984218D040F6E6
:100700000003C4F20003984212D016E040F6004302
:10071000C4F2000398420BD043F20043C4F2010339
:10072000984205D042F60043C4F20103984204D136
:100730004B882CF0700243EA020C41F2004240F474
:100740008063C4F20002934204D0CA882CF4407340
:1007500042EA030CA0F800C08A888285A0F180429A
:10076000A2F596320B884FEAB222072A038507D8F2
:10077000012303FA02F212F0E50F1CBF097A018689
:100780000121818270470000FEE70000FFF77CFF37
:1007900040F26404C2F2000442F24C40C4F2010090
:1007A00021460222FFF724FEFFF748FD40F26805CC
:1007B00040F2600640F26207C2F20005C2F2000693
:1007C000C2F200074FF47A70FFF730FE286801305C
:1007D00028602088308060883880F3E7EC070008C4
:0C07E00000000020700600002801000846
:04000005080000ED02
:00000001FF
